:020000040800F2
:10700000683A0020A9AC0008B1AC000889AC0008BF
:10701000B5AC0008B9AC0008BDAC00080000000029
:10702000000000000000000000000000C1AC0008EB
:10703000C5AC000800000000C9AC00086378000877
:10704000CDAC0008D1AC0008D5AC0008D9AC000824
:10705000DDAC0008E1AC0008799100087B910008E4
:107060007D9100087F910008819100089D780008BB
:10707000797800088B7800087F78000891780008FC
:107080009778000885780008E5AC0008E9AC0008AE
:10709000A5780008EDAC0008F1AC00088391000869
:1070A000F5AC0008F9AC0008FDAC000801AD000823
:1070B0006988000805AD000809AD00080DAD00089D
:1070C00011AD000815AD000819AD00081DAD000890
:1070D00021AD00086D780008737800086778000813
:1070E0008591000825AD000829AD0008F8B50025F8
:1070F000DFF8744517E02E46032000F086FC0546B5
:10710000042000F082FC0746052000F07EFC45EAE2
:10711000470141EA8005062000F077FC45EAC005FA
:10712000EDB2B54202D000F08CFC206000F089FC8A
:107130002168401A6528DED32DB1102D03DA05F140
:107140006000C0B2F2BD0FF2BC5400F0AFFA10B153
:1071500000F0ACFA441C00F074FC01466D20009075
:1071600023460FF290520FF24C5000F07DFC60204D
:10717000F2BD2DE9F04F0FF2C860DFF8F0540FF2C6
:107180008458DFF8EC646960D0E9009A14461A4626
:10719000072092FBF0F083B2C0EBC00087B0101A5A
:1071A000C0B203900420CDE9019AA86006930020A4
:1071B000082AE8600FF284590FF2385A25DA9DF850
:1071C000040000F03F008DF804002146501C2861A7
:1071D00005F1150000F05AFC9DF804002875306890
:1071E00010F0E05F02D000F09DF88EE000F09EF815
:1071F00018B100F09BF800F1010800F022FCAC216E
:107200000091434600F089F87FE00698401E059003
:1072100000270398401C049008E0C34600F011FCCE
:10722000E12100915B4600F078F87F1C06988742C8
:107230006BDA9DF8040000F03F00002F0CBF40F017
:10724000400040F080008DF804000398002804BF3F
:107250000598874205D19DF8040040F0C0008DF8E4
:10726000040007229DF8041067F305018DF804104F
:10727000C7EBC70000F04CF801A80CC805F11401D9
:1072800008200CC12861306810F0E05F02D000F0E7
:1072900049F812E000F04AF820B100F047F800F198
:1072A000010B00E0C34600F0CCFB0146CF2000906C
:1072B0005B465246484600F0D7FB03980028B4D0FE
:1072C00005988742B1D17F1C47F0C0008DF80400BB
:1072D000C7EBC700039A00F01BF8049A01A905F157
:1072E000140000F0E3FB04982861306810F0E05FC0
:1072F00002D000F017F898E700F018F800288CD0BA
:1073000000F014F800F1010B88E707B0BDE8F08F3A
:1073100001190DF1050000F0B9BB0146524648467F
:1073200000F0A2BB2946002000F05CBC5C21404676
:1073300000F06ABC10B5026842F480520260520D3F
:10734000046862F354340460CA4C0268246822F072
:10735000FF5242EA4452D200D2080260100A00F002
:107360000F00401E012805D9401F08BF00F04EFC49
:10737000002010BDD0B2012804D0032825D08028D9
:1073800020D0F5E7087818700878012807D10C227A
:107390000FF2C831581C00F079FB0D2010BD0228F7
:1073A00007D10E220FF2C031581C00F06FFB0F20E6
:1073B00010BD0328DCD10322AAA1581C00F066FBF3
:1073C000042010BD00F0F0FCD2E7AB490868401C77
:1073D000086004221846F1E7A84949680A89002094
:1073E000002A1FBF0120B1F8D4110029FF207047E7
:1073F0004FF4E6714843A1494968002242504018C1
:10740000028170479D4A526813680021984201D159
:1074100008467047D2F8CC2101219042F8D0FE20D6
:1074200070479648964A4168C1F8982301F56671FD
:10743000944A4A60944A8A6000F5E47100684FF407
:10744000FA7200F03BBE2DE9F04F8C4E306889B0E7
:1074500000F03CFE002830D1306805A900F061FE44
:107460009DF8202006A903A800F020FB05989DF8B0
:10747000209002909DF81800870900F03F081DD168
:107480007C480299006860F3543102910298C0F37D
:107490004730002811D0A9F1010206F1080392B289
:1074A0000DF10D0102A8FFF745FF030005D0029979
:1074B00006F108020020FFF75CFECFE04FF0000A63
:1074C0004FF4E67B70680BFB0AF52818008968B159
:1074D00000F0B7FA71686A185268801A41F289326E
:1074E000904203D3D1F8A013504688470AF1010A0D
:1074F000BAF1020FE6DB012F0FF2F81A0FF20424A3
:107500003ED100F0C3F80546FE2D04D17068D0F8D6
:10751000980380470546FF2D01D0022D10DB00F0B7
:10752000C5F810B100F0C2F8441C00F08AFA014618
:1075300040F293200090234652460FF23C208BE00D
:1075400070680BFB05F5281800F0AAF870682A1877
:10755000072111810299295000F073FA71686918A6
:10756000486000F0A3F810B100F0A0F8441C00F04F
:1075700068FA40F29B2100F08EF80FF234206BE0A5
:10758000022F18BF032F69D100F080F80546FE2DA9
:1075900001D0022D11DB00F089F810B100F086F85F
:1075A000441C00F04EFA40F2A221009101950146E0
:1075B000234652460FF214204EE000F042FA716862
:1075C0000BFB05FB0BEB0103022F58601AD1C8EB34
:1075D000C800C01800F064F8706858440189C91DDB
:1075E000018120465C2100F00FFB10B100F05EF835
:1075F000441C00F026FA40F2AA2100F04CF80FF2E9
:10760000042029E0032F29D1C8EBC800C018A9F134
:10761000010200F046F870685844A9F1010201899E
:107620005118018100F10A02038902990020FFF735
:10763000A0FD7168D1F8A0132846884700F036F8FD
:1076400010B100F033F8441C00F0FBF940F2B72110
:1076500000F021F80FF2CC1000F006FA09B0BDE8F6
:10766000F08F0000313000004C2A0020C829002093
:1076700008640040542A0020502A00200000002006
:10768000D973000805740008F17300087168029846
:10769000D1F89C1308470091234601465246704793
:1076A00007220DF10D010A3000F0F0B95C212046EF
:1076B00000F0AABA5B25645D5B25733A2025733A16
:1076C0002534645D20556C747261736F6E6963203C
:1076D00043414E204D4143204944206F7574206F33
:1076E000662072616E6765202120212021200D0A0D
:1076F0000D0A000063616E2070726F746F636F6CAF
:1077000000000000463A5C6D675C556C74726173F2
:107710006F6E69632D5C6170706C69636174696F11
:107720006E5C706C6174666F726D5C63616E5F70CD
:10773000726F746F636F6C2E630000005B25645D75
:107740005B25733A2025733A2534645D2054582014
:10775000627573792021200D0A0D0A004330303103
:107760004D303742313033003230313730353035FB
:1077700052303130310000005B25645D5B25733A87
:107780002025733A2534645D204C4F4E47204652E5
:10779000414D4520524356204255462049532046EC
:1077A000554C4C212021202120210D0A0D0A0000DA
:1077B0005B25645D5B25733A2025733A2534645D4F
:1077C00020626567696E0D0A0D0A00005B25645D25
:1077D0005B25733A2025733A2534645D2045525267
:1077E0004F52202120210D0A206C6F6E6720627598
:1077F000666620696E6465782069732025640D0AC9
:10780000000000005B25645D5B25733A2025733A18
:107810002534645D207472616E73696E670D0A0DA4
:107820000A0000005B25645D5B25733A2025733AEE
:107830002534645D20656E640D0A0D0A00000000A9
:1078400000000000000000000901002806D5564A8B
:1078500000F00F00801800F8041C7047534A815450
:10786000704700F079BA524800F0B1BE514800F0BC
:10787000AEBE514800F0ABBE4D4800F0C6BE4D480C
:1078800000F0C3BE4C4800F0C0BE494800F0DCBE6A
:10789000484800F0D9BE484800F0D6BE00BF704747
:1078A00000BF7047454800F094BF80B50121032018
:1078B000FFF7CAFF06212520FFF7C6FF0621262075
:1078C000FFF7C2FF07210E20FFF7BEFF07210F20A1
:1078D000FFF7BAFF07210C20FFF7B6FF07210D20A5
:1078E000FFF7B2FF0A210B20FFF7AEFF0E210620A3
:1078F000FFF7AAFF0E210720FFF7A6FF0E210820A1
:10790000FFF7A2FF0E210920FFF79EFF0E210A209C
:10791000FFF79AFF0E211720FFF796FF0E21282070
:10792000FFF792FFBDE80440072114208CE7704761
:1079300038B5234C206890F84910012904BF90F80D
:107940004A0000281ED100F089FF2168486091F8A4
:1079500030200A2A12DA0B68834238BFC01A05D3D6
:10796000984206D24FF6FF75EB1AC01801EB82025F
:10797000906091F83000401C81F8300001202168AF
:1079800081F8480031BD0000E0B572B601200090DA
:1079900000A90C4800F01AF800230B4A022100202D
:1079A00000F0F4F862B607BD18ED00E000E400E076
:1079B00070210020082100203C2100206C220020A2
:1079C0007821002000002110317900080190012069
:1079D0000290002000F0ACB8E0B500F00AF80020FA
:1079E00000F0A6F8002000F0ACF8002000F0DAF873
:1079F00007BD012000900190029000A9704700206F
:107A000000F0A8B8002000F09CB8C11E062938BFBD
:107A100000F0B2B8FF20704780B51148016841F00E
:107A200010010160032000F037FF0F2000F0FBF889
:107A300000F080FF002002BD0A480168491C016077
:107A4000704708480068704711B581B0FFF7F9FF2B
:107A50000446FFF7F6FF0199001B8842F9D313BDD6
:107A6000002002405C2A00200EB400B582B003A9B9
:107A70000091024600AB0121034878440A3000F02F
:107A80005BFF06BC5DF810FBEB31000062B38B07B7
:107A900008D0521E11F8013B00F8013B00F0248091
:107AA0008B07F6D1830740F0208000BF103A07D340
:107AB00030B4B1E83810103AA0E83810F9D230BC30
:107AC000530724BFB1E80810A0E8081044BF51F8DC
:107AD000043B40F8043BD20724BF31F8022B20F8C6
:107AE000022B44BF0B7803707047083A07D3B1E804
:107AF0000810083A40F8043B40F804CBF7D253078B
:107B0000E4E750F8041B61B150F8042BD30744BFDD
:107B1000A9F101039A180023091F42F8043BFAD186
:107B2000EFE77047DFF8D0007047DFF8CC0010BDFA
:107B3000242800DBF6E7DFF8C42002EBC00001F0E8
:107B400067B9242800DBEDE7DFF8B01001EBC000D7
:107B500001F085B9242800DBE4E7DFF8A01001EB91
:107B6000C00001F08BB9242800DBDBE7DFF88C10C4
:107B700001EBC00001F096B9242801DB0120704719
:107B8000DFF8781001EBC00001F0A0B910B524288F
:107B900000DBCAE7DFF8644004EBC000BDE810403A
:107BA00001F0A0B9242800DBBCE7DFF8501001EB9E
:107BB000C00001F0F6B910B5042800DBB5E7DFF826
:107BC0004030342404FB0030BDE8104000F07CBCA1
:107BD000022801DBFFF7A6BF0A49142202FB0010AE
:107BE00000F06CBD022801DBFFF79CBF054A14239F
:107BF00003FB002000F0D9BDB1E5FFFFBCA60008E3
:107C0000082100206C22002001F0F8BABFF34F8F4A
:107C10005748584A016801F4E06111430160BFF31D
:107C20004F8F00BFFDE710B5044601F06AFD4FF429
:107C30007A71B0FBF1F000F05EFE002221464FF0B9
:107C4000FF3000F036FE002010BD00B58FB000A858
:107C5000142101F0A3FD05A8282101F09FFDFFF7E5
:107C6000DBFE4548006800F00C00082821D0012008
:107C7000059000214FF4803006900D9007914FF44D
:107C8000E0100E9002210C9105A801F0C3FA00B19A
:107C9000FEE70F20009002210220019000200290B8
:107CA00004904FF48060039000A801F034FC00B110
:107CB000FEE70FB000BD704710B53048304C82B0C1
:107CC000016841F080510160016801F0805100912C
:107CD00000996168890708D58068C0F3807020B179
:107CE00028490120086001F05DFDFF22206840F076
:107CF000080020605121244801F064FD032000F0B9
:107D0000CBFDFFF7D2FD01F09DF9204C402204F19C
:107D10001001204601F073FD23460FF280021C493A
:107D20001C4800F026FA4FF4FA6001F079FD01F0EA
:107D30007DFDBDE8134001F07ABD10B5002207E0DB
:107D4000134B1B681C682406FAD5145C5C60521C3B
:107D50008A42F5D3002010BD80B5FFF76DFE0E48B6
:107D60000168491C0160BDE8014001F05ABD0000F6
:107D70000CED00E00400FA05041002401C10024063
:107D800000700040E004424200E400E008290020C6
:107D9000D4A7000808210020582A002000C20100B2
:107DA000030000000000000010B5FFF715FEFFF70C
:107DB00026FE00F079F944E000BF00BF00BF00BF1D
:107DC00000BF00BF00BF00BF00BF00BF00BF00BFBB
:107DD00000BF00BF00BF00BF00BF00BF00BF00BFAB
:107DE00000BF00BF00BF00BF00BF00BF00BF00BF9B
:107DF00000BF00BF00BF00BF00BF00BF00BF00BF8B
:107E000000BF00BF00BF00BF00BF00BF00BF00BF7A
:107E100000BF00BF00BF00BF00BF00BF00BF00BF6A
:107E200000BF00BF00BF00BF00BF00BF00BF00BF5A
:107E300000BF00BF00BF00BF00BF00BF00BF00BF4A
:107E4000401CE1698842B7D3FFF7DCFD962000BFF4
:107E500000BF00BF00BF00BF00BF00BF00BF00BF2A
:107E600000BF00BF00BF00BF00BF00BF00BF00BF1A
:107E700000BF00BF00BF00BF00BF00BF00BF00BF0A
:107E800000BF00BF00BF00BF00BF00BF00BF00BFFA
:107E900000BF00BF00BF00BF00BF00BF00BF00BFEA
:107EA00000BF00BF00BF00BF00BF00BF00BF00BFDA
:107EB00000BF00BF00BF00BF00BF00BF00BF00BFCA
:107EC00000BF00BF00BF00BF00BF00BF00BF00BFBA
:107ED00000BF00BF00BF401E0028B8D172B6A16825
:107EE00081F830000A21A068343001F057FCA16805
:107EF000002081F84A000120A16881F8490062B69B
:107F0000FFF742FD00F0AAFCA168086010BD70B543
:107F1000DFF8A001DFF8A0110068DFF89451000637
:107F200041EAD001A86800F1300282B0127E00263A
:107F3000042A18BF082A5BA461D000EB86024FF424
:107F40007A73926802EB0212B2FBF3F200EB460383
:107F50009A8690F83020964207DA3246561C00EB9B
:107F60004202F6B2928E172AE7DB0EB1761EF6B207
:107F700000EB460200EB86004FF47A73806800EB5A
:107F80000010B0FBF3F09086908E332813DA287837
:107F9000401C2870C0B202280DDA00F05FFC1E21E0
:107FA000B0FBF1F11E2202FB11001430FFF74CFD73
:107FB000FFF7FAFE73BD00202870908E172806DAAE
:107FC0006888ADF80000022300AA00201DE002230B
:107FD00034320020FFF7CDF8A86800EB4600818E10
:107FE0002046FFF741FDA86800EB4600808E6880C0
:107FF000172811DA0FF22400FFF736FD73BD0020B9
:108000002870ADF80000022300AAFFF7B2F8BDF80F
:1080100000102046FFF728FD73BD0000575446208E
:1080200021200D0A0000000010B5DFF88440A06890
:1080300090F84910012904BF90F84A00002818D18F
:10804000607820B9FFF7FDFC606501206070FFF7E4
:10805000F8FC616D401A0A280BD3A168002081F852
:1080600049000120A16881F84A0000206070FFF7F4
:108070004EFFA06890F84800012806D1FFF7E1FC08
:10808000A0650220A16881F84800FFF7DAFCA16D25
:10809000401AB0F5FA7F03D3A168042081F84800A4
:1080A00010BD000025640A000020014C704700004C
:1080B00070210020542A002080120C0028B1016099
:1080C00042600021C1608160012070478168C06802
:1080D000814201D101207047002070470EB430B5B5
:1080E000040009D0E0686268A368411CB1FBF2F5A6
:1080F00002FB15118B4201D100200FE023681022F2
:1081000003A903EB0010FFF7C1FCE0686168401CA5
:10811000B0FBF1F201FB1200E060012030BC5DF821
:1081200010FB38B504000D4617D0FFF7CFFF01282C
:1081300001D1002032BD2068A16800EB011110229E
:108140002846FFF7A3FCA068401CA0606168B0FB54
:10815000F1F201FB1200A060012032BD012100F00C
:108160001F029140DFF82025FFE7400942F8201068
:1081700070472DE9F04F87B005460E4617469846E2
:10818000002401F054FB002D1CBF002E002F28D02E
:10819000B8F1000F07D0D8F80C0000281CBFD8F8A1
:1081A000000000281DD0306800F000FA0090DFF8D1
:1081B000DC9409EB80000290009803280AD2E8685A
:1081C00000281FBF009949F82100A868002808D09E
:1081D0000299C860AC626C622C63EC622E606868C5
:1081E000002800F0A780012105F1180001F025FB0F
:1081F000012105F1140001F020FB012105F120000F
:1082000001F01BFB05F11C0001F01DFB706800F084
:108210004EF9012003900590049403A9B06800F082
:10822000F7FDF06830B1F979012918BF032901D1B0
:1082300000F03DF9306930B1F979022918BF0329FE
:1082400001D100F034F90098DFF844B418B10228E5
:108250001DD00BD327E0DBF8040040F48040CBF8BE
:108260000400DBF8040000F480401AE0DFF8240486
:10827000016841F008010160DBF8080040F40030BB
:10828000CBF80800DBF8080000F4003009E0DBF868
:10829000080040F48020CBF80800DBF8080000F468
:1082A00080200190019828686968006808600C20A7
:1082B000696848616968386848603879042803D07B
:1082C000032804D1787910B14FF4805000E00020E9
:1082D00069688860B87908B14FF400506968C8606F
:1082E000787940B1022801D003D323E04FF48060B5
:1082F00001E04FF4C060696808614FF4807AF87952
:1083000028B102280FD00BD3032810D012E06968DF
:108310008861686801F09EFA78B1DFF87C43B2E0CA
:108320004FF40070F3E76868C0F818A0F1E74FF465
:108330004070ECE7DFF86443A5E000F0BEF8706938
:10834000DFF85C1388420BD1DBF8000040F001003D
:10835000CBF80000DBF8000000F00100019001986C
:108360000298F16AC06801603268121D8A6080213B
:108370000268D4604460846000F08BF807BFC0F8E6
:1083800010A0C0F814A00461446101F0A9FB029898
:108390006968C068486302996868C968486200985B
:1083A00059F82000B16901603268121D8A601021FD
:1083B0000268D46041608460802100F06AF807BFE1
:1083C000C0F810A0C0F814A00461446101F088FB5B
:1083D0000098696859F820000863009959F821103D
:1083E0006868486296F91C00FFF7B8FEDFF8B472BF
:1083F0003868316A726A1143084338606868006BF4
:1084000000F04FF80FF2B02000990856FFF7A6FED3
:1084100028680068416921F080014161B8F1000FCE
:1084200068680068C16841F40051C1603068C16883
:1084300041F00801C160C16841F00401C1600BD086
:10844000C5F81080AC62D8F80020D8F80C100023D2
:10845000284600F065F80DE096F93000FFF77EFE43
:108460003868716BB26B1143084338606868406BC1
:1084700000F017F83068C16821F02001C16041693F
:1084800021F04001416101F0D7F9204607B0BDE875
:10849000F08FC16084614FF40051C16139790429C2
:1084A00070470068016841F00A0101607047017976
:1084B00000680023012200F0F6BD68680068C1680A
:1084C00021F40051C1607047F8B504460D461646C8
:1084D000002701F0ACF904F11C0001F0B6F9002C02
:1084E00018BF002D00D02EB96C4F11E0616801203B
:1084F00081F83900606801F050FA0128F6D160680F
:108500000123B2B2294601F0E2F908B14FF0FF377A
:1085100004F11C0001F09BF901F08EF93846F2BD20
:10852000F8B5044665682669002086B16D6B2D6834
:108530002E6846F020062E605B4D66683668356012
:1085400065682D68EE6846F02006EE6006E0A262DF
:108550006D6B2D682E6826F020062E602568514E22
:108560003768D5F820C0AD6B45EA0C053D43356052
:1085700065686D6B2D686A606268526B1268D160C5
:108580006168496B09680A6842F001020A60616823
:1085900009684A6942F040024A6133B104F11400AB
:1085A000BDE8F440194601F04AB9F2BD3F4988429E
:1085B00001D1002070473E49884201D10120704717
:1085C0003C49884201D102207047FF20704710B516
:1085D00004466FF0200061680968086062682069DD
:1085E000526B016812685268891A8160A06A58B19A
:1085F000206901F00BF9A16A884205D304F1140047
:1086000001F01FF90020A06210BD0168254B4A69E6
:108610001268096A0A4204D01A68114319600021DD
:10862000016301684A691268496A0A4205D01A68FA
:10863000114319604FF0FF310163416A00291CBFEB
:10864000183001F0FEB870470168164B8A6A12684C
:10865000496B0A4204D01A68114319600021C162B3
:1086600001688A6A1268896B0A4205D01A68114348
:1086700019604FF0FF31C162816A00291CBF1430BC
:1086800001F0DFB87047000000E100E0002A0020A0
:108690001410024004000140D4E5FFFFCFE5FFFFC6
:1086A0000000024004000240DFFFFFEF00380140FD
:1086B000004400400048004025262700F0B58FB058
:1086C00005465F4EFEF712FD3060002401F0AFF862
:1086D000002D1CBF686800285A4F53D02868002816
:1086E0001FBFA8680028E96800294BD0012100912C
:1086F000022101910121029100A900F089FB0120D2
:1087000000900290019400A9E86800F081FB2868BD
:108710004D49884236D14D48026842F000720260ED
:108720004FF0FF37006800F000700390039868680E
:108730000160092141608460C4604FF440310161EF
:108740004FF40011416184610121C1610162446201
:108750008462C46201F0EAF9A0B9089409940A9409
:108760000D9404A9306880B2049004200590FF2085
:1087700006900620079001200B900C90686801F08D
:1087800049FA08B13C460BE068680068416941F06D
:108790000E0141614FF480102D4908602D49086099
:1087A00001F04AF820460FB0F0BD38B50446002568
:1087B0006068244A006B10B10B69092B01D3154680
:1087C00005E01C22FFF772F9606801F084FA284680
:1087D00032BD10B50446606808B101F059FB60680D
:1087E00001684A69520703D54A6922F004024A61C6
:1087F00000684169090703D5416921F00801416119
:1088000010BD10B586B00446002101F0FCFA606B83
:108810004168019100F1140102698DF8102002A84D
:10882000FFF744F901A883B00CC869460CC10CC815
:108830000CC10EBC08480068FFF750FC06B010BD24
:10884000542A0020CFE5FFFF006400401C100240C6
:1088500080E200E000E100E0000000200148006844
:10886000704700002400004070470268531C0360FA
:10887000117070472A480068C0F302207047090150
:10888000002806D5274A00F00F00801800F8041CC5
:108890007047254A8154704721490A684FF6FF0303
:1088A0001A4000F0070042EA0020204A1043086006
:1088B000704770B504460D461646FFF7DBFF00F023
:1088C00007000121C0F10702052A2EBF0F2201FA7D
:1088D00002F2521E031D072B34BF0020C01E2A4087
:1088E000824001FA00F0401E304040EA020120467A
:1088F000BDE87040C3E710B5401EB0F1807F01D3E2
:10890000012010BD0A4C60600F214FF0FF30FFF7CF
:10891000B6FF0020A06007202060002010BD0000EE
:108920000CED00E018ED00E000E400E00000FA05C6
:1089300010E000E0704700002DE9F04F93B0804652
:1089400002AE002092461D460291B0610DF1300941
:108950000AE01AF8011B0298C0470290002800F0B4
:10896000AA81B069401CB0619AF8000008B9B069EA
:10897000A3E12528EDD10020F0603061706101E0B5
:1089800040F001001AF8011F2029F9D023290DD049
:108990002B2904D02D2906D030290AD00CE040F034
:1089A000020080B2EEE740F00400FAE740F0080071
:1089B000F7E740F01000F4E72A290FD12968296071
:1089C00051F8042B2960002A326204D5514240F04C
:1089D0000400316280B20AF1010A15E0002131621F
:1089E0000CE0316A6FF00043994205D001EB81033E
:1089F00002EB4301303931620AF1010A9AF8002092
:108A0000A2F130010A29ECD39AF800102E2903D0E4
:108A10004FF0FF31F16122E01AF8011F2A2908D135
:108A2000296829600AF1010A51F8042B2960F261D2
:108A300015E00021F1610CE0F1696FF0004399420B
:108A400005D001EB810302EB43013039F1610AF1FA
:108A5000010A9AF80020A2F130010A29ECD3B0846F
:108A60000FF2A4309AF8001001F050FB08B11AF888
:108A7000010B8DF82E009DF82E00682804BF9AF88F
:108A80000000682804D162208DF82E000AF1010A46
:108A90000CA8B0601AF8014B252C13D0582C38D0F4
:108AA000632C00F09080642C18BF692C65D06F2C6B
:108AB0002FD0702C23D0732C0AD0752C18BF782C93
:108AC00027D08AE00120F06025208DF830008FE06B
:108AD0002868286050F8044B28607460F769002FFC
:108AE00004D5204601F01EFB074606E03A46002169
:108AF000204601F033FB00B1071B376178E028689E
:108B0000286050F8041B286001910CA8706078213F
:108B100055E09DF82E206C2A0DD0712A18BF6A2AC4
:108B200009D12868C01D20F007032B60D3E900019C
:108B300008332B6004E02968296051F8040B296090
:108B4000682A019002D101A8008803E0622A02D1BC
:108B500001A80078019096F8240000072AD5019812
:108B600040B344F02000782824D130208DF8300024
:108B700089F801400220F0601CE09DF82E00294693
:108B800000F09EF80028019004D5F068411CF160C7
:108B90002D210DE0B08C810704D5F068411CF160F7
:108BA0002B2105E0C00705D5F068411CF1602021AC
:108BB00000F80910F1680CA808187060214601A897
:108BC00000F0A4F814E00120F0602868286050F854
:108BD000041B28608DF830100AE00120F060252089
:108BE0008DF8300024B1F068411CF16000F80940B4
:108BF000306AF168401A7169401A3169441A96F86E
:108C0000240040070FD420208DF80000002708E042
:108C1000012300AA01A9404600F0DFF800284AD14C
:108C20007F1CA742F4DBF7680DF1300B0AE01BF85C
:108C3000011B0298C047029000283CD0B069401C3C
:108C4000B0617F1E002FF2D130208DF800004FF070
:108C5000000B776908E0012300AA01A9404600F053
:108C6000BCF840BB0BF1010BBB45F4DB3769D6F810
:108C700004B009E01BF8011B0298C0470290D0B174
:108C8000B069401CB0617F1E002FF3D196F824001C
:108C900040077FF569AE20208DF8000000E07F1CC2
:108CA000A742BFF661AE012300AA01A9404600F029
:108CB00094F80028F3D04FF0FF3013B0BDE8F08FE8
:108CC000622815D068280CD06C2818BF742816D0DC
:108CD0007A2814D10A680A6052F8040B0A6000214D
:108CE00070470A680A6052F8040B0A6000B20BE091
:108CF0000A680A6052F8040B0A6040B204E00A688D
:108D00000A6052F8040B0A60C1177047F0B4C268D9
:108D10006F2908BF082405D041F02003782B14BF29
:108D20000A24102418230668642918BF69293746C5
:108D300002D1002E48BF7F425FB9056A4DB9082CA9
:108D400027D190F82810090723D530211723D17592
:108D50001FE0B7FBF4F604FB167730375D1EFFB259
:108D60003A2FA4BFA1F1510C6744AF542B463700F2
:108D700003D085689E18B542EBD3082C09D190F832
:108D80002810090705D5995C302902D05B1E3021D7
:108D90009954C3F1180141619A188260026A9142A4
:108DA00008DA511A81614FF6EF72018D1140018589
:108DB000F0BC7047002A0ED590F8282002F014026B
:108DC000102A08D1426A0369D21A8369D21A531A47
:108DD000012BA8BF8361F0BC7047F8B504460D466F
:108DE00016461F46002004E0E869401CE8617F1E2B
:108DF000002047B116F8011B6868A047686000288A
:108E0000F2D14FF0FF30F2BD686C747A4C00000074
:108E1000F0B585B005460E46002400F008FDDFF8E9
:108E2000787325B1286800F01EF9FF2801D13C466F
:108E300010E000F02FF93068039070680190B0687E
:108E40000290012095F904108840009000A928683C
:108E500001F0B0F900F0F0FC204605B0F0BD38B5E7
:108E600000F030F814B9DFF8305303E000F014F8E4
:108E700080B2086100F0E0FC284632BD38B50446F7
:108E8000002514B9DFF8105305E000F0D0FC00F025
:108E900003F800040861EDE794F90410012088400C
:108EA0002168704738B500F00DF80CB9BA4D08E0EC
:108EB0002068C16894F9043001229A4092B251406E
:108EC000C160D7E70446002500F0B1BC38B5FFF714
:108ED000F9FF34B120688068217920FA01F202F0AC
:108EE0000105C7E72DE9F04F044685B094F9040069
:108EF00001270E4692469B4607FA00F84FF00009FC
:108F0000002500F094FCD4B1012E04D017D3032E19
:108F100013D010D313E0A1480190039702200290D0
:108F200000A9206801F046F918F01F0F0AD094F943
:108F30000400851D0FE09A48EEE79A48ECE7DFF859
:108F4000589228E018F4787F18BF172503D118F439
:108F50007C4F18BF28259448C0F800806AB2500999
:108F600002F01F01914A07FA01F142F82010904ADD
:108F700042F820100C2122798E48236801FB02025E
:108F80001360227901FB0202C2F804A0227901FBDE
:108F90000200C0F808B000F04FFC484605B0BDE83C
:108FA000F08FF8B50546002400F041FC0DB97A4C6D
:108FB00044E02879804A1668012101FA00F39BB247
:108FC0001E423BD00C267B4F06FB007CDCF800C029
:108FD000D5F800E0F44531D1A44613F01F0E18BFB8
:108FE00000F1060C14D14FF47870034206D01068DB
:108FF00010F4787F4FF0170C14D109E04FF47C4047
:1090000003421EBF4FF0280C106810F47C4F09D1AA
:109010000CF01F0001FA00F068494FFA8CF35A096E
:1090200041F82200287906FB00700460287906FBCD
:1090300000704460287906FB0070846000F0FCFB3F
:109040002046F2BD80B5C0215A4800F0A7FB5C481D
:10905000016841F001010160006800F0010000902A
:109060000098002002BD5749884209D056498842DD
:1090700008D05649884207D05549884206D007E0B3
:10908000002070470120704702207047032070477E
:10909000FF2070474A490FF244130A6853F8200032
:1090A000104308607047F0B585B004460D4616467B
:1090B000FFF7D9FF074600F0BAFB41480FF21C1238
:1090C000016852F8272011430160032003900296A3
:1090D0000220019000A90120A8400090204601F044
:1090E00069F800F0A9FB002005B0F0BD39482E4911
:1090F000006800F03F00103806280CD0072818D070
:10910000082819D009281AD00A281BD017281CD0E3
:10911000282825D070470120002280B208600C2149
:10912000244801FB0201486810B188684968084773
:10913000704702200122F0E704200222EDE7082018
:109140000322EAE710200422E7E7202005220B682B
:1091500080B20342E1D14000521C0A2AF7D3DCE777
:109160004FF480600A220B6880B20342D5D14000E0
:10917000521C102AF7D3D0E7B8E7B7E7B6E7B5E750
:10918000B4E7B3E7B2E71448016821F0E06141F0C9
:109190000071016070470000CFE5FFFF0000111073
:1091A00000002110000031101404014080E200E0B2
:1091B00000E100E0F82600200004014080E100E02A
:1091C0001810024000080140000C0140001001404E
:1091D0000014014004ED00E0040001400400000020
:1091E0000800000010000000200000000000000047
:1091F000000000000000000000000000C9B20022D2
:1092000003788B4208BF024610F8013B002BF7D1D0
:10921000104670472DE9F843044641F2893820781A
:10922000DFF83065C00750D500F02CFA05D000F00B
:109230002EFA0BD17068C00308D500F05CF9002845
:1092400043D06068002840D1012047E1306800F039
:1092500056F93060FEF7F5FB074600F04CF928B1EF
:10926000FEF7EFFBC01B4045F7D334E16068B0F573
:10927000803F09D008B930680AE0B0F5A02F306807
:1092800006D140F480203060306840F4803001E046
:1092900000F035F93060606858B1FEF7D2FB074640
:1092A00000F029F988B9FEF7CCFBC01B4045F7D385
:1092B00011E1FEF7C6FB074600F01DF928B1FEF7E5
:1092C000C0FBC01B4045F7D305E12078DFF8887468
:1092D000800716D5706810F00C0F05D000F0D7F994
:1092E00026D17068C00323D400F010F91CBF206998
:1092F0000128A9D13068616920F0F80040EAC10076
:1093000030602078000732D5A169DFF850040029C9
:109310004ED001210160FEF794FB0546706AC0F350
:10932000400010BBFEF78DFB401B6528F6D3D2E052
:10933000206968B101203860FEF783FB054600F024
:10934000E5F8D7D1FEF77DFB401B6528F7D3C2E0D7
:109350003860FEF776FB054600F0D8F8D1D0FEF76E
:1093600070FB401B6528F7D3B5E0FEF76DFB207856
:1093700040076CD5F069DFF8E89340F08050F06169
:10938000F06900F0805000900098D9F8000040F497
:109390008070C9F80000FEF754FB0546D9F80000BC
:1093A000C00514D4FEF74DFB401B6528F6D392E0B0
:1093B0000160FEF746FB0546706AC0F340000028D6
:1093C000D5D0FEF73EFB401B6528F5D383E0306A1D
:1093D00000F086F83062FEF734FB0546306AC0F3D1
:1093E000400028B1FEF72DFB401B4045F6D372E04C
:1093F000E068012808D008B9306A09E00528306A19
:1094000006D140F004003062306A40F0010001E013
:1094100000F066F83062E06860B1FEF712FB0546C6
:10942000306AC0F3400090B9FEF70BFB401B40458B
:10943000F6D350E0FEF705FB0546306AC0F3400066
:1094400028B1FEF7FEFA401B4045F6D343E0E06941
:10945000002842D0716801F00C0108293FF4F4AEF5
:1094600002282CD100F043F805463068C0F3406074
:1094700028B1FEF7E6FA401B6528F6D32BE0206AF8
:10948000B0F5803F05D17068A16820F40030084332
:1094900070607068216A20F474100843616A0843A0
:1094A0007060012000F024F804463068C0F340608A
:1094B00098B9FEF7C6FA001B6528F6D30BE000F05A
:1094C00016F804463068C0F3406030B1FEF7B9FAD0
:1094D000001B6528F6D3032000E00020BDE8F283DE
:1094E000400840003062306A20F0040070470020DD
:1094F0003866FEF7A6BA3068C0F34040704720F4E3
:1095000080303060306820F4802070473068C0F3CD
:109510004000002870472DE9F843DFF84852DFF893
:109520003462044628680F4600F00700B84241F252
:1095300089383BD200F095F878D100F0ADF877D5B6
:109540006068012803D13168C1F3404104E002287A
:10955000316803D1C1F3406121B967E0C1F3400133
:10956000002963D000F087F807466068012808D119
:1095700000F088F85CD0FEF764FAC01B4045F7D3D2
:109580004FE0022808D100F082F851D0FEF759FAD6
:10959000C01B4045F7D344E0706810F00C0F47D073
:1095A000FEF74FFAC01B4045F6D33AE000F074F8DE
:1095B00039D56068012803D13168C1F3404104E026
:1095C0000228316803D1C1F3406121B92EE0C1F313
:1095D000400100292AD000F04EF881466068012839
:1095E00009D100F04FF81ED0FEF72BFAA0EB0900CE
:1095F0004045F6D315E0022809D100F048F812D012
:10960000FEF71FFAA0EB09004045F6D309E07068A9
:1096100010F00C0F07D0FEF714FAA0EB090040453C
:10962000F5D303201BE000F01CF801D0012016E068
:109630002078400705D57068E16820F4E0600843B1
:1096400070602078000706D57068216920F46050AA
:1096500040EAC10070600F20FEF7E5FA0020BDE887
:10966000F2832868C00847EAC0002860286800F034
:109670000700B84270477168890840EA810070604D
:10968000FEF7DFB9706800F00C00042870477068BE
:1096900000F00C00082870472078800705D5706816
:1096A000A16820F0F000084370602078C007704780
:1096B00000B585B001A80FF2C0011022FEF7F6F93F
:1096C0000FF2C4000088ADF800002748016801F0DF
:1096D0000C02082A12D101AAC1F38343C9039A5C80
:1096E00009D5006800ABC0F340402049C05CB1FB25
:1096F000F0F0504303E01E48504300E01B4805B023
:1097000000BD80B5FFF7D4FF174B0FF280021B6836
:109710001849C3F303139A5C20FA02F30B6008683C
:1097200002BD80B5FFF7EDFF00F00EF8C2F3022294
:1097300006E080B5FFF7E5FF00F006F8C2F3C222AD
:10974000125C21FA02F002BD074A126801460FF2CC
:109750003C00704700100240000042428004424238
:1097600000700040002002400410024000127A0005
:1097700000093D00902200200203040506070809A5
:109780000A0B0C0D0E0F101001020000000000006B
:10979000010203040102030406070809002200F085
:1097A00015B800000548016841F002010160044855
:1097B000016841F00401016030BF70470070004053
:1097C00010ED00E062F30F2262F31F4200B500BF0C
:1097D000130096469446103928BFA0E80C50FAD8DA
:1097E0005FEA417C28BF0CC048BF40F8042BC90782
:1097F00028BF20F8022B48BF00F8012B00BDC16034
:109800000260002141608160002070470168426869
:1098100080688A1A8018B0FBF1F201FB12007047D1
:1098200000E000BF00487047B1E5FFFF00E000BF67
:1098300000487047B1E5FFFFFAE7002070470020BD
:1098400070470020704700207047002070470020BC
:109850007047000010B5040001D1012010BD94F83C
:10986000390018B900F014F800F030F800F014F8DE
:1098700000F01DF8FFE741612068C16841F4005124
:10988000C1600020E063012084F83900002010BD91
:1098900084F8380020467047022084F83900206898
:1098A000C16821F40051C160204600F0C5B82068AD
:1098B000016921F4904101612068416921F02A0188
:1098C0007047012084F8390000207047704770B558
:1098D00000F047F818BF22281E4640D1002D18BFBF
:1098E000002A01D1012070BD00F053F837D000F0FC
:1098F00042F822280CBF3220122084F83900A284BA
:10990000E28406E000F033F800BB216815F8010B93
:109910004860E08CA0B1401EE0843346A068B0F5FA
:10992000805FEFD100F023F880B928882168C00556
:10993000C00D48602069002814BF6D1CAD1CE8E70D
:1099400033460022402100F014F808B1032070BD16
:1099500094F8390032280CBF2220012013E00220A5
:1099600070BD04460D4694F8390001287047002266
:109970008021204614E0012084F838000020E063B4
:1099800094F83900704784F83900002084F83800D2
:1099900070BD94F838000128704790F8390070477E
:1099A0002DE9F04104460D4690461E46FEF749F863
:1099B000B8F1000F07460ED1206800682840A84281
:1099C00029D016F1010FF7D09EB1FEF73AF8C01B6F
:1099D0008642F1D20DE0206800682840A8421AD1E2
:1099E00016F1010FF7D026B1FEF72BF8C01B864207
:1099F000F1D200F019F821F02001C1602068C1689F
:109A000021F48071C16000F009F8FFF75AFF84F873
:109A10003800032000E00020BDE8F08120684169A3
:109A200049084900416170472068C16821F0800100
:109A3000C1602068C16870472DE9F0410446642583
:109A400020680169E26821F440511143016119263F
:109A5000C168214A1140A268114322691143626919
:109A60001143C1604169A26921F440711143416110
:109A70001A49884208D1FFF75CFE8046FFF759FE7D
:109A80000746FFF756FE07E0FFF74BFE8046FFF75D
:109A900048FE0746FFF745FE61688A00704306FBF3
:109AA00007F3B0FBF2F0B3FBF2F3B0FBF5F005FB0C
:109AB0001030000106FB08F13230B1FBF2F1B0FBCF
:109AC000F5F0B1FBF5F100F00F0040EA011021685C
:109AD0008860BDE8F0810000F3E9FFFF0038014035
:109AE00008B90120704790F8211009B980F82010BA
:109AF000022180F8211001680A6843686FF30D1293
:109B00001A4383681A43C3681A4303691A434369B3
:109B10001A4383691A43C3691A430A6000214163E7
:109B2000012180F8211000207047000070B5044624
:109B30000025002C6CD094F8390020B984F8380046
:109B4000204600F0C7F800F08EF92068016841F067
:109B500001010160FDF775FF064620684168C907ED
:109B600005D4FDF76EFF801B0B28F6D341E041685A
:109B7000C9074AD5A1690129E16908BF80250129E2
:109B8000216A08BF45F040050129616A08BF45F018
:109B900020050129A16A08BF45F010050129E16AE5
:109BA00008BF45F008050129016808BF45F0040514
:109BB00021F0FC0129430160A068E16808432169A4
:109BC0000843616908436168491E08432168C86108
:109BD00020680168490849000160FDF732FF064628
:109BE00020684168C90707D4FDF72BFF801B0B28AD
:109BF000F6D300F045F970BD4068C00705D50020D8
:109C0000E06300F039F9002070BD042084F83900C9
:109C1000012070BDF0B54B69006801229A40D0F870
:109C200000324C6A23F47C5343EA042343F00103DB
:109C300000F50074C0F80032D343E5691D40E561CA
:109C4000CD6955B9E5681D40E5604F684D69CE683E
:109C500000F037F80F6800F02BF8CD69012D0AD11C
:109C6000E5681543E5604F684D690E6800F029F816
:109C7000CF6800F01DF88D69002D65680CBF1D4090
:109C8000154365600D69002D07BF65692B40636949
:109C900013436361096A012902D1E1691143E1615A
:109CA000D0F8001249084900C0F800120020F0BDA9
:109CB0008E6800EBC505BFB247EA0646C5F84462A8
:109CC000704700EBC505BFB247EA0646C5F84062DB
:109CD0004D697047704770B590F8391001291CBF65
:109CE00090F83910222978D190F83810012974D0D1
:109CF000012180F8381002689168490148BF0021AD
:109D000008D49168090148BF012103D49168C900B2
:109D100061D5022102EB0112D2F8803103F0010378
:109D2000C2F88031036B0268DC689D6802EB0112A7
:109D300035B9D2F880511B6844EA43532B4306E0FF
:109D4000D2F880615B6845EAC30323433343C2F81A
:109D50008031026B137C03F00F03136100F03FF8B6
:109D60001B091B01C2F8843100F039F8046B246927
:109D70002343C2F88431026B947DD37D240444EAEA
:109D80000363547D127D00F037F8C3F88821026B1D
:109D9000947ED37E240444EA0363547E127E00F052
:109DA0002BF8C3F88C2190F83920222A0CBF3222DC
:109DB000122280F839200022C26380F8382002681D
:109DC000536943F40F4343F001035361006800EB10
:109DD000011000F00AF8002070BD022070BD02687A
:109DE00002EB0112D2F884317047D0F8801141F0B3
:109DF0000101C0F88011704743EA04231A43036845
:109E000003EB0113704790F83920012A1CBF90F82A
:109E10003920122A25D190F83820012A21D0012298
:109E200080F8382090F83920122A0CBF32222222E2
:109E300080F839200022C2630268536943F40F435B
:109E400043F001035361002280F8382000290068A4
:109E500041690CBF41F0020141F010014161002055
:109E6000704702207047022084F83900206801689A
:109E700021F0020101607047012084F83900704729
:109E8000032084F83900002084F83800032070474C
:109E900010B5044620684169C90726D5826854492F
:109EA0000A408A421FBF514982680A408A4204D050
:109EB00082684D490A408A4217D1416949084900E0
:109EC000416194F83900122804D12068416921F4D5
:109ED0000F41416194F8390032280CBF2220012043
:109EE00084F83900204600F085F820684169890728
:109EF00007D5C06810F0030003D00021204600F011
:109F00007BF820684169C90607D5006910F0030095
:109F100003D00121204600F06FF820688169C9074D
:109F200009D54169C90506D54169090403D5E16B25
:109F300041F00101E1638169890709D5416989051A
:109F400006D54169090403D5E16B41F00201E163E3
:109F50008169490709D54169490506D5416909045F
:109F600003D5E16B41F00401E163816911F0700FE9
:109F700031D0416909052ED5416909042BD5816984
:109F800001F0700110290AD020290CD030290ED000
:109F9000402910D0502912D0602914D017E0E16B6D
:109FA00041F0080112E0E16B41F010010EE0E16BBD
:109FB00041F020010AE0E16B41F0400106E0E16B75
:109FC00041F0800102E0E16B41F48071E16381695D
:109FD00021F070018161E06B20B1FFF74DFF204659
:109FE00000F009F810BD0000000003100003000895
:109FF000030000047047704738B500F071F803F0B3
:10A000000403A360446B0368A56803EB0113002DF0
:10A01000D3F8B03107BF5B0D2360DB08636000F04D
:10A020005FF803F00203E36000F053F803F00F035E
:10A03000236100F04EF8C3F30723E36100F05EF8FC
:10A04000237500F05BF81B0A637500F057F81B0CD2
:10A05000A37500F053F81B0EE37500F048F8237663
:10A0600000F045F81B0A637600F041F81B0CA3765C
:10A07000036803EB0112D2F8BC21436B120EDA76AF
:10A08000026841B9D16841F02001D16001684A6994
:10A0900022F0020207E0116941F02001116101681C
:10A0A0004A6922F010024A6190F83910222904D13D
:10A0B00001684A6922F40F424A6190F83910322946
:10A0C0000CBF1221012180F83910FEF79AFB002005
:10A0D00032BD036803EB0113D3F8B431446B70470E
:10A0E000036803EB0113D3F8B031446B7047036886
:10A0F00003EB0113D3F8BC31446B7047036803EBE7
:10A100000113D3F8B831446B704700000278C9B22C
:10A110008A421AB11CBF10F8012FF9E718BF0020BE
:10A120007047000000F10103810704D010F8011B03
:10A1300089B18107FAD10268B2F10131914311F07E
:10A14000803F04BF50F8042FF6E710F8011B11B14F
:10A1500010F8011BFBE7C01A70470000C9B2830763
:10A1600006D0521E22D310F8013B9942F7D11FE0CE
:10A17000083A13D302F1040241EA012141EA014104
:10A1800050F8043B121F21BF4B40A3F1013C2CEAC5
:10A19000030C1CF0803FF3D0C9B2001F083210F846
:10A1A000013B521E28BF91EA030FF8D818BF0120C7
:10A1B000401E70472DE9F8474FF0000E00225B4B20
:10A1C000DFF86C81DFF86C914FF00F0A012707FA76
:10A1D00002F60F683740B74240F0A1804C685CB38C
:10A1E000012C1AD0022C1FD0032C32D0112C17D0E6
:10A1F000122C1DD0504DAC421CBF504DAC421BD058
:10A200004F4DAC421CBF4F4DAC4215D04E4DAC42F1
:10A210001CBF4E4DAC420FD01DE0D1F80CE01AE04F
:10A22000CC6804F1040E16E0CC6804F1080E12E0CC
:10A23000CC6804F10C0E0EE08C68002C08BF4FF0C7
:10A24000040E08D0012C4FF0080E14BF46610661C1
:10A2500001E04FF0000EFF2F02D88446940004E086
:10A26000A2F1080400F1040CA400DCF800500AFA82
:10A2700004F6B5430EFA04F42C43CCF800404C68C5
:10A28000E4004CD5D9F8004044F00104C9F800407E
:10A290004FEA920CD9F8005005F001040094009C9C
:10A2A00058F82C5002F00304A4000AFA04F6B5434F
:10A2B000274EB04208BF00260ED0264EB04208BF3F
:10A2C000012609D0244EB04208BF022604D0234EF6
:10A2D000B0420CBF0326042606FA04F42C4348F8C7
:10A2E0002C40FE434C68E4031C684CBF3C433440A4
:10A2F0001C604C68A4035C684CBF3C4334405C6009
:10A300004C68E4029C684CBF3C4334409C604C6801
:10A31000A40247BFDC682743DF683740DF60521C78
:10A32000102AFFF453AFBDE8F1870000000401409C
:10A330000800014018100240000011100000121027
:10A340000000211000002210000031100000321027
:10A3500000080140000C01400010014000140140C1
:10A360002DE9F04F8DB0046845688668C768D0F85D
:10A370001080D0F81490D0F818A0D0F81CB00FF2CC
:10A38000701100A800F080F900F0ABF800F0ACF814
:10A39000EFF30580032806D014D3052809D005D390
:10A3A000062809D00EE00FF25C1107E00FF26011F1
:10A3B00004E00FF26C1101E00FF2701100A800F040
:10A3C00063F905E0EFF305820FF26C1100F086F8F7
:10A3D00000F087F800F088F80FF2701100A800F084
:10A3E00053F900F07EF800F07FF822460FF28C114E
:10A3F00000F074F800F075F800F076F82A460FF2D5
:10A400008C1100F06BF800F06CF800F06DF832463B
:10A410000FF2881100F062F800F063F800F064F8C1
:10A420003A460FF2881100F059F800F05AF800F09F
:10A430005BF842460FF2841100F050F800F051F83A
:10A4400000F052F84A460FF2841100F047F800F08D
:10A4500048F800F049F852460FF2A41100F03EF817
:10A4600000F03FF800F040F85A460FF2BC1100F03F
:10A4700035F800F036F800F037F8174C0FF2B81145
:10A48000226900F02BF800F02CF800F02DF822687B
:10A490000FF2B41100F022F800F023F800F024F8D5
:10A4A00062680FF2B41100F019F800F01AF800F029
:10A4B0001BF8A2680FF2B01100F010F800F011F8CC
:10A4C00000F012F862690FF2B01100F007F800F026
:10A4D00008F800F009F8FEE728ED00E000A800F019
:10A4E000D3B800A8FFF71EBE411C00A8FDF725BC8D
:10A4F0000A3E3E3E3E3E3E3E3E3E3E3E3E3E3E5B93
:10A500000000000048617264204661756C740000B0
:10A510004D656D6F7279204D616E61676500000059
:10A52000427573204661756C740000005573616755
:10A5300065204661756C7400556E6B6E6F776E208A
:10A540004661756C74202564000000002C636F72F6
:10A55000727570742C64756D7020726567697374A0
:10A560006572735D3E3E3E3E3E3E3E3E3E3E3E3E5C
:10A570003E3E3E3E3E3E0A0D000000005230203D71
:10A58000203078303825780D0A0000005231203D07
:10A59000203078253038780D0A0000005232203DF6
:10A5A000203078253038780D0A0000005233203DE5
:10A5B000203078253038780D0A00000052313220E2
:10A5C0003D203078253038780D0A00004C52205B51
:10A5D0005231345D203D203078303825782020738A
:10A5E0007562726F7574696E652063616C6C207240
:10A5F000657475726E20616464726573730D0A0010
:10A600005043205B5231355D203D20307830382575
:10A6100078202070726F6772616D20636F756E7441
:10A6200065720D0A00000000505352203D20307822
:10A63000303825780D0A000042464152203D203036
:10A6400078303825780D0A0043465352203D20309B
:10A6500078253038780D0A0048465352203D203086
:10A6600078303825780D0A0044465352203D20307A
:10A6700078303825780D0A0041465352203D20306D
:10A6800078303825780D0A000CB41CB5044604A8AF
:10A6900001900A46009401AB00A90748784418309D
:10A6A000FEF74AF9009A0021117000285CBF00985B
:10A6B000001B16BC5DF80CFBB3E1FFFF000C014072
:10A6C0000D0000000008014000000000000C0140E7
:10A6D00003000000000801400200000000080140E3
:10A6E00003000000000801400400000000080140D1
:10A6F00005000000000801400600000000080140BD
:10A700000700000000000000000000000000000042
:10A71000000000000000000000000000000C0140EC
:10A720000A000000000C01400B0000000010014076
:10A7300006000000001401400A000000001401405F
:10A740000B0000000010014008000000000801405C
:10A7500008000000000801400B0000000008014054
:10A760000C0000000014014003000000000801403C
:10A770000F0000000000000000000000000C01407D
:10A7800004000000000C014005000000000C014026
:10A7900006000000000C014007000000001401400A
:10A7A0000500000000140140060000000008014000
:10A7B00009000000000801400A000000000000003D
:10A7C0000000000000000000000000000008014040
:10A7D0000800000000380140ACA70008B4A700083A
:10A7E00000000000000000000000024044000240A1
:10A7F0000E00000000200000008000000000024069
:10A80000580002400F000000000002000000080095
:10A81000004400409CA70008A4A700080000000016
:10A820000000000000000240800002401100000013
:10A830000000000200000008000002406C0002401E
:10A8400010000000000020000000800030B583B040
:10A85000FDF7FBF9FDF730FAFDF769F8FEF751FF58
:10A8600004460FF2E4055C212846FDF7CDF920B13E
:10A870005C212846FDF7C8F9451CFDF7E2F81C21CC
:10A880000091019401462B460FF2B0020FF28400B2
:10A89000FDF7EAF800F08AF800F06CF80020FDF708
:10A8A00097F90A20FDF7D0F80A20FDF7CDF8FCF75C
:10A8B000B8FDFCF7C8FDFDF7B7FB00F001F8F8E7BD
:10A8C00010B584B0012000900190029000A90220F0
:10A8D000FDF72EF9FDF7B5F80D4C2168401AB0F5DB
:10A8E000FA7F08D36068401C60600220FDF73BF9E6
:10A8F000FDF7A7F820602079C00703D50220FDF7F7
:10A9000029F91FBD0220FDF71CF91FBD0000000042
:10A910003C2A00205B25645D5B25733A2025733A51
:10A920002534645D2053797374656D20636C6F63A7
:10A930006B203D20256420487A0D0A00556C747206
:10A9400061736F6E69630000463A5C6D675C556CBD
:10A95000747261736F6E69632D5C6170706C696392
:10A960006174696F6E5C6170706C69636174696F4A
:10A970006E2E630010B50FF2440482B05C212046B5
:10A98000FDF742F920B15C212046FDF73DF9441C5A
:10A99000FDF757F801462A20009023460FF21002D7
:10A9A0000FF25000FDF760F8002016BD00F038B837
:10A9B000506C6174666F726D00000000463A5C6D09
:10A9C000675C556C747261736F6E69632D5C617046
:10A9D000706C69636174696F6E5C706C6174666FD2
:10A9E000726D5C6170705F706C6174666F726D2EF9
:10A9F000630000005B25645D5B25733A2025733A94
:10AA00002534645D20706C6174666F726D20696EB0
:10AA100069742073756363657373210D0A00000008
:10AA2000E0B50120009000A90220019001200290D1
:10AA30000220FDF77DF8FEF7A6FB012000900190B3
:10AA4000029000A90020FDF773F800A90220FDF78D
:10AA50006FF800A90120FDF76BF80120FDF771F8F0
:10AA60000220FDF777F80020FDF76BF80020019039
:10AA700000A92220FDF75CF800A90320FDF758F893
:10AA800000A90420FDF754F800A90520FDF750F8AF
:10AA900000A90620FDF74CF800A90720FDF748F8AB
:10AAA00000A90820FDF744F8FEF76DFB07BD81689B
:10AAB00007E002681168536889185B18C3600832A0
:10AAC0000260C2689142F4D04A1C826008787047E4
:10AAD0002DE9FF4D00F1080100910027026852089E
:10AAE00001EBC2010191B846002102910391016876
:10AAF000490800EBC101406800F0010501F10804BC
:10AB0000400804EBC00631E000A8FFF7D0FF4FFA81
:10AB100080FA0AE0009801680818009902904968D4
:10AB20000818039000980830009002980399884212
:10AB3000F0D0401C029010F801BD47450CD1B44242
:10AB400008BF00F01DF8276805B14F44606800EBAE
:10AB5000070808344745F2D0BAF1000F07F801BBE7
:10AB60000AD51AF1010AE8D14745CDD1B442CBD17B
:10AB7000304604B0BDE8F08DBAF1010AD5D5F3E74F
:10AB8000012000F001B8000080B5C046C046024A6E
:10AB900011001820ABBEFBE72600020010B50446EA
:10ABA00014F1010F82B00AD08DF80000012200A933
:10ABB000012000F007F8012801D1204616BD4FF012
:10ABC000FF3016BD10B5144609B9002010BD002095
:10ABD000FCF7F1FF204610BD10B507497944183144
:10ABE000064C7C44163404E00A68081D5118884756
:10ABF0000146A142F8D110BD08000000300000005D
:10AC000003CFFFFFD00700009422002000000000C7
:10AC1000C1FEFFFF02000000020000001001000062
:10AC20002C010000000000209422000080B504499F
:10AC300004480860FDF709F8FDF73DF8012002BD62
:10AC400008ED00E000700008FFF7F0FF002801D0D9
:10AC5000FFF7C2FF0020C046C046FFF7F7FD00F037
:10AC600000F800F001B8000007463846FFF78CFFF7
:10AC7000FBE738B504460D462846FFF78FFFA8428C
:10AC800018BF0024204632BD1EF0040F0CBFEFF3A6
:10AC90000880EFF30980FFF763BBC046C046C0469B
:10ACA000C046FFF7D1FF0000004800479BAC0008FA
:10ACB000FFF7FEBFFFF7FEBFFFF7FEBFFFF7FEBFC8
:10ACC000FFF7FEBFFFF7FEBFFFF7FEBFFFF7FEBFB8
:10ACD000FFF7FEBFFFF7FEBFFFF7FEBFFFF7FEBFA8
:10ACE000FFF7FEBFFFF7FEBFFFF7FEBFFFF7FEBF98
:10ACF000FFF7FEBFFFF7FEBFFFF7FEBFFFF7FEBF88
:10AD0000FFF7FEBFFFF7FEBFFFF7FEBFFFF7FEBF77
:10AD1000FFF7FEBFFFF7FEBFFFF7FEBFFFF7FEBF67
:10AD2000FFF7FEBFFFF7FEBFFFF7FEBF072C2A00AD
:10AD30002094220020810081008100810081008117
:10AD400000810081008100810081008100810081FB
:10AD500000810081008100810081008100810081EB
:10AD600000810081008100810081008100810081DB
:10AD700000810081008100810081008100810081CB
:10AD800000810081008100810081008100810081BB
:10AD900000810081008100810081008100810081AB
:10ADA000008100810081008100810081008100819B
:10ADB000008100810081008100BA000B382600204C
:10ADC00060280020B8270020D8000B7826002098A3
:10ADD000280020F0270020D80015182A0020582924
:10ADE0000020442A0020602A0020D021002090E288
:10ADF000B600001FFD00001CFD000019FD0000173B
:10AE0000FD000012FD00000FFD000008FD0000061F
:10AE1000FD000005FD000004FD000004FD0000042D
:10AE2000FD000004FD000004FD000002B10007E485
:10AE3000290020A4290020F7000E6400402C2200E5
:10AE4000205CA7000854A70008F4000B01020304CB
:08AE50000607080900A24A04EC
:040000050800AC9BA8
:00000001FF
